:100000000C9462000C948A000C948A000C948A0070
:100010000C948A000C948A000C948A000C948A0038
:100020000C948A000C948A000C948A000C948A0028
:100030000C948A000C948A000C948A000C948A0018
:100040000C9479040C948A000C9447040C942104B9
:100050000C948A000C948A000C948A000C948A00F8
:100060000C948A000C948A000000000024002700F1
:100070002A0000000000250028002B0000000000DE
:1000800023002600290004040404040404040202DA
:100090000202020203030303030301020408102007
:1000A0004080010204081020010204081020000012
:1000B0000008000201000003040700000000000027
:1000C0000000C30411241FBECFEFD8E0DEBFCDBFB8
:1000D00011E0A0E0B1E0E8ECFCE002C005900D9278
:1000E000A23AB107D9F722E0A2EAB1E001C01D921D
:1000F000A236B207E1F710E0C2E6D0E004C02197D3
:10010000FE010E945C06C136D107C9F70E940D05A9
:100110000C9462060C940000AF92BF92CF92DF92D3
:10012000EF92FF920F931F93CF93DF936C017B01AC
:100130008B01040F151FEB015E01AE18BF08C0173D
:10014000D10759F06991D601ED91FC910190F081B0
:10015000E02DC6010995892B79F7C501DF91CF9173
:100160001F910F91FF90EF90DF90CF90BF90AF90D5
:100170000895FC01538D448D252F30E0842F90E0AD
:10018000821B930B541710F0CF9608950197089592
:10019000FC01918D828D981761F0A28DAE0FBF2F5B
:1001A000B11D5D968C91928D9F5F9F73928F90E0B1
:1001B00008958FEF9FEF0895FC01918D828D981720
:1001C00031F0828DE80FF11D858D90E008958FEF5D
:1001D0009FEF0895FC01918D228D892F90E0805C26
:1001E0009F4F821B91098F73992708958DEA91E0A3
:1001F0000E94EA0021E0892B09F420E0822F089573
:1002000080E090E0892B29F00E94F60081110C9487
:1002100000000895FC01A48DA80FB92FB11DA35AA9
:10022000BF4F2C91848D90E001968F739927848F16
:10023000A689B7892C93A089B1898C918370806439
:100240008C93938D848D981306C00288F389E02DDA
:1002500080818F7D80830895EF92FF920F931F938B
:10026000CF93DF93EC0181E0888F9B8D8C8D981369
:100270001AC0E889F989808185FF15C09FB7F89475
:10028000EE89FF896083E889F989808183708064C1
:1002900080839FBF81E090E0DF91CF911F910F910C
:1002A000FF90EF900895F62E0B8D10E00F5F1F4F1B
:1002B0000F731127E02E8C8D8E110CC00FB607FC2A
:1002C000FACFE889F989808185FFF5CFCE010E94B8
:1002D0000A01F1CFEB8DEC0FFD2FF11DE35AFF4F1B
:1002E000F0829FB7F8940B8FEA89FB898081806246
:1002F000CFCFCF93DF93EC01888D8823B9F0AA8903
:10030000BB89E889F9898C9185FD03C0808186FDD0
:100310000DC00FB607FCF7CF8C9185FFF2CF80811F
:1003200085FFEDCFCE010E940A01E9CFDF91CF9189
:100330000895833081F028F4813099F08230A9F05B
:1003400008958730A9F08830C9F08430B1F48091E5
:1003500080008F7D03C0809180008F778093800024
:10036000089584B58F7784BD089584B58F7DFBCFC4
:100370008091B0008F778093B00008958091B00095
:100380008F7DF9CFCF93DF93282F30E0F901E2552D
:10039000FF4F8491F901E656FF4FD491F901EA57D6
:1003A000FF4FC491CC23A1F081110E949901EC2F41
:1003B000F0E0EE0FFF1FE458FF4FA591B491EC91D0
:1003C000ED2381E090E009F480E0DF91CF91089582
:1003D00080E090E0FACF1F93CF93DF93282F30E097
:1003E000F901E255FF4F8491F901E656FF4FD49190
:1003F000F901EA57FF4FC491CC23A9F0162F8111C0
:100400000E949901EC2FF0E0EE0FFF1FEE58FF4F16
:10041000A591B4918FB7F894EC91111108C0D095C3
:10042000DE23DC938FBFDF91CF911F910895DE2BE8
:10043000F8CFCF93DF9390E0FC01E656FF4F249175
:100440008A579F4FFC0184918823D1F090E0880F58
:10045000991FFC01E859FF4FA591B491FC01EE589A
:10046000FF4FC591D49161110EC09FB7F8948C9144
:10047000E22FE0958E238C932881E223E8839FBFAF
:10048000DF91CF9108958FB7F894EC91E22BEC9324
:100490008FBFF6CF3FB7F8948091A7019091A80144
:1004A000A091A901B091AA0126B5A89B05C02F3F34
:1004B00019F00196A11DB11D3FBFBA2FA92F982F8A
:1004C0008827BC01CD01620F711D811D911D42E085
:1004D000660F771F881F991F4A95D1F708958F924D
:1004E0009F92AF92BF92CF92DF92EF92FF924B0119
:1004F0005C010E944A026B017C010E944A026C1955
:100500007D098E099F09683E734081059105A8F316
:1005100021E0821A9108A108B10888EEC80E83E094
:10052000D81EE11CF11C81149104A104B10429F727
:10053000FF90EF90DF90CF90BF90AF909F908F9003
:100540000895089590E080E00895FB010190002057
:10055000E9F73197AF01461B570BDC01ED91FC9198
:100560000280F381E02D0994CF93DF93BC018DEAE3
:1005700091E00E94A502EC016EE171E08DEA91E04C
:100580000E94A5028C0F9D1FDF91CF910895CF93FC
:10059000DF93EC0160E08E810E94EB0161E08E81CF
:1005A0000E94EB0160E08E810E94EB018BE891E0FC
:1005B0000197F1F7DF91CF910895CF92DF92EF92FB
:1005C000FF920F931F93CF93DF936C017C0187E021
:1005D000E80EF11CD0E0C0E0062F10E0B8010C2EB0
:1005E00002C0759567950A94E2F76170F7018191F1
:1005F0007F010E94EB012196C430D10579F7C60135
:10060000DF91CF911F910F91FF90EF90DF90CF90EE
:100610000C94C702CF92DF92EF92FF920F931F9339
:10062000CF93DF93EC01F62E642F8C810E94EB01B7
:100630008D818F3F19F060E00E94EB010F2D10E0DB
:100640008F8584FF25C06E0187E0C80ED11CF12C78
:10065000E12CB8010E2C02C0759567950A94E2F75B
:100660006170F60181916F010E94EB01FFEFEF1ABB
:10067000FF0A88E0E816F10461F7CE01DF91CF911F
:100680001F910F91FF90EF90DF90CF900C94C702D5
:10069000B80184E0759567958A95E1F7CE010E94CF
:1006A000DD026F2DCE01DF91CF911F910F91FF9051
:1006B000EF90DF90CF900C94DD0240E0682F8AE449
:1006C00092E00C940A0381E00E945D038BE39FE1BA
:1006D0000197F1F70895CF93DF93823029F4909139
:1006E000590298609093590280935D0210925E02C5
:1006F00080E480935F0280E18093600280E58093D4
:10070000610261E080914E020E94190280914F02C5
:100710008F3F19F061E00E94190261E08091500260
:100720000E941902CAE4D2E09E012A54324080910C
:10073000590284FD0BC084E090E021962817390708
:1007400044F461E08E810E941902EECF88E090E0CF
:10075000F4CF8BE39DE00197F1F760E080914E02CA
:100760000E94EB0160E0809150020E94EB018091B9
:100770004F028F3F19F060E00E94EB018091590217
:1007800084FD34C063E08AE492E00E94DD02CBE4A1
:10079000D6E4CE010197F1F763E08AE492E00E948B
:1007A000DD022197F1F763E08AE492E00E94DD0226
:1007B00083E592E00197F1F762E08AE492E00E941B
:1007C000DD028091590280620E945D0384E0809383
:1007D0005A028CE00E945D030E94630382E08093D2
:1007E0005B0286E0DF91CF910C945D0380620E94F2
:1007F0005D038BE496E40197F1F7809159028062E2
:100800000E945D0383E592E00197F1F78091590220
:1008100080620E945D03D5CFE0915D02E33048F431
:10082000E150F0E0E65BFD4F9489890F80680C94FD
:100830005D03E2E0F6CF41E00E940A0381E090E030
:1008400008951F920F920FB60F9211242F933F938A
:100850004F935F936F937F938F939F93AF93BF93C8
:10086000EF93FF938DEA91E00E940A01FF91EF91CF
:10087000BF91AF919F918F917F916F915F914F91B8
:100880003F912F910F900FBE0F901F9018951F92C0
:100890000F920FB60F9211242F938F939F93EF9384
:1008A000FF93E091BD01F091BE018081E091C30111
:1008B000F091C40182FD1BC090818091C6018F5FC1
:1008C0008F732091C701821741F0E091C601F0E0DB
:1008D000E355FE4F958F8093C601FF91EF919F9155
:1008E0008F912F910F900FBE0F901F9018958081C0
:1008F000F4CF1F920F920FB60F9211242F933F93B4
:100900008F939F93AF93BF938091A3019091A40184
:10091000A091A501B091A6013091A20123E0230F7F
:100920002D3758F50196A11DB11D2093A20180938A
:10093000A3019093A401A093A501B093A601809177
:10094000A7019091A801A091A901B091AA010196D7
:10095000A11DB11D8093A7019093A801A093A901A7
:10096000B093AA01BF91AF919F918F913F912F9129
:100970000F900FBE0F901F90189526E8230F029638
:10098000A11DB11DD2CFEDEAF1E01382128288EEF3
:1009900093E0A0E0B0E084839583A683B78384E0EE
:1009A00091E09183808385EC90E09587848784EC47
:1009B00090E09787868780EC90E0918B808B81EC2C
:1009C00090E0938B828B82EC90E0958B848B86EC0D
:1009D00090E0978B868B118E128E138E148EEAE424
:1009E000F2E01382128286E191E09183808382E0BB
:1009F00084838FEF858383E0868384E0878385E02B
:100A0000808786E0818787E0828713861486158633
:100A10001686178681E00C946B03789484B5826007
:100A200084BD84B5816084BD85B5826085BD85B592
:100A3000816085BD80916E00816080936E00109210
:100A4000810080918100826080938100809181008B
:100A5000816080938100809180008160809380001C
:100A60008091B10084608093B1008091B00081607A
:100A70008093B00080917A00846080937A008091A6
:100A80007A00826080937A0080917A0081608093FE
:100A90007A0080917A00806880937A001092C10079
:100AA000E091BD01F091BE0182E08083E091B90147
:100AB000F091BA011082E091BB01F091BC018FEC82
:100AC00080831092C501E091C101F091C20186E0DE
:100AD0008083E091BF01F091C001808180618083BB
:100AE000E091BF01F091C001808188608083E09136
:100AF000BF01F091C001808180688083E091BF01D7
:100B0000F091C00180818F7D808361E08BE00E9445
:100B1000190261E08AE00E94190260E088E00E9408
:100B2000190260E089E00E94190282E00E946B03D2
:100B300061E271E08AE492E00E94A50280E00E94F6
:100B40000C0460E371E08AE492E00E94A50264EF85
:100B500071E080E090E00E946F0280E0E82E80E08B
:100B6000F82E88E00E94C2018C0181E00115110578
:100B700009F480E08093AC0189E00E94C201EC019D
:100B800081E0209709F480E08093AB0164E670E097
:100B900080E090E00E946F02012B09F45CC0CD2B35
:100BA00009F459C00E94630368E371E08AE492E0AB
:100BB0000E94A50283E00E940C0466E471E08AE4CE
:100BC00092E00E94A50268EE73E080E090E00E944F
:100BD0006F0261E08BE00E94EB0164E670E080E070
:100BE00090E00E946F0261E08AE00E94EB0164E6FF
:100BF00070E080E090E00E946F0282E591E00E9448
:100C0000B40268EE73E080E090E00E946F028CE531
:100C100091E00E94B40268EE73E080E090E00E94F0
:100C20006F0285E791E00E94B40264E670E080E024
:100C300090E00E946F026AE18DEA91E00E942C012F
:100C40006EE171E08DEA91E00E94A50268EE73E02A
:100C500080E090E0D0CF0E9463036FE871E08AE407
:100C600092E00E94A50283E00E940C0469E971E011
:100C70008AE492E00E94A50264EF71E080E090E0D7
:100C80000E946F0260E08BE00E94EB0160E08AE06E
:100C90000E94EB0164E670E080E090E00E946F0249
:100CA000E114F10409F45DCF0E94F600882309F4F1
:100CB00058CF0E94000055CFEE0FFF1F0590F49112
:080CC000E02D0994F894FFCF28
:100CC800000000002C018C00B9007901EA00C8007E
:100CD800DC00000000001B048C00A202A1020D0A27
:100CE800004669726520444554454354494F4E00B7
:100CF8002053595354454D00466972652044657424
:100D080065637465640053656E64696E67206D730E
:100D1800670041542B434D47463D310041542B4316
:100D28004D47533D222B3931393339393732313830
:100D38003430220D00466972652044657465637419
:100D4800656420696E7369646520686F6D65004627
:100D5800697265206E6F74200064657465637465DC
:020D6800640025
:00000001FF
